:020000040800F2
:100000000040012055110008690500086B05000833
:100010006D0500086F05000871050008000000006C
:100020000000000000000000000000007305000850
:100030007505000800000000770500087905000834
:100040009D1100089D1100089D1100089D110008D8
:100050009D1100089D1100089D1100089D110008C8
:100060009D1100089D1100089D1100089D110008B8
:100070009D1100089D1100089D1100089D110008A8
:100080009D1100089D1100089D1100089D11000898
:100090009D1100089D1100089D1100089D11000888
:1000A0009D1100089D1100089D1100089D11000878
:1000B0009D1100089D1100089D1100089D11000868
:1000C0009D1100089D1100089D1100089D11000858
:1000D0009D1100089D1100089D1100089D11000848
:1000E0009D1100089D1100089D1100089D11000838
:1000F0009D110008000000009D1100089D110008DE
:100100009D1100089D1100089D1100089D11000817
:100110009D1100089D1100089D11000800000000BD
:100120009D11000800000000000000000000000019
:0C01300000000000000000005FF808F173
:10013C0010B5054C237833B9044B13B10448AFF315
:10014C0000800123237010BD0C0000200000000073
:10015C00F811000808B5034B1BB103490348AFF372
:10016C00008008BD0000000010000020F8110008FD
:10017C0053B94AB9002908BF00281CBF4FF0FF3102
:10018C004FF0FF3000F076B9ADF1080C6DE904CEFC
:10019C0000F006F8DDF804E0DDE9022304B0704756
:1001AC002DE9F047089E0D4604468846002B4DD19C
:1001BC008A42944668D9B2FA82F252B101FA02F339
:1001CC00C2F1200120FA01F10CFA02FC41EA030809
:1001DC0094404FEA1C41B8FBF1F71FFA8CFE01FB6F
:1001EC00178807FB0EF0230C43EA084398420AD900
:1001FC001CEB030307F1FF3580F01E81984240F29F
:10020C001B81023F63441B1AB3FBF1F001FB10335B
:10021C0000FB0EFEA4B244EA0344A6450AD91CEB2B
:10022C00040400F1FF3380F00981A64540F20681F9
:10023C00644402380021A4EB0E0440EA07401EB1CE
:10024C000023D440C6E90043BDE8F0878B4208D9AF
:10025C00002E00F0EE800021C6E900050846BDE83E
:10026C00F087B3FA83F100294AD1AB4202D3824220
:10027C0000F2FC80841A65EB030301209846002EE3
:10028C00E2D0C6E90048DFE702B9FFDEB2FA82F23B
:10029C00002A40F09180A1EB0C0001214FEA1C4791
:1002AC001FFA8CFEB0FBF7F307FB1300250C45EA95
:1002BC0000450EFB03F0A84208D91CEB050503F121
:1002CC00FF3802D2A84200F2CE8043462D1AB5FB6D
:1002DC00F7F007FB10550EFB00FEA4B244EA0544F0
:1002EC00A64508D91CEB040400F1FF3502D2A64543
:1002FC0000F2B6802846A4EB0E0440EA03409EE7C9
:10030C00C1F120078B4022FA07FC4CEA030C25FABA
:10031C0007FA4FEA1C49BAFBF9F820FA07F309FB74
:10032C0018AA8D401FFA8CFE1D4300FA01F308FB3E
:10033C000EF02C0C44EA0A44A04202FA01F20BD94A
:10034C001CEB040408F1FF3A80F08880A04240F2D4
:10035C008580A8F102086444241AB4FBF9F009FB67
:10036C00104400FB0EFEADB245EA0444A64508D984
:10037C001CEB040400F1FF356CD2A6456AD9023897
:10038C00644440EA0840A0FB0295A4EB0E04AC4286
:10039C00C846AE4656D353D0002E69D0B3EB0802F4
:1003AC0064EB0E0422FA01F304FA07F71F43CC4066
:1003BC00C6E90074002147E70CFA02FCC2F12001E7
:1003CC0025FA01F34FEA1C4720FA01F195400D4341
:1003DC00B3FBF7F107FB11331FFA8CFE280C40EA34
:1003EC00034001FB0EF3834204FA02F408D91CEB20
:1003FC00000001F1FF382FD283422DD9023960441D
:10040C00C01AB0FBF7F307FB1300ADB245EA004589
:10041C0003FB0EF0A84208D91CEB050503F1FF38CD
:10042C0016D2A84214D9023B6544281A43EA01416A
:10043C0038E73146304607E72F46E4E61846F9E63A
:10044C004B45A9D2B9EB020865EB0C0E0138A3E7BA
:10045C004346EAE7284694E74146D1E7D0467BE796
:10046C006444023847E7023B65442FE7084606E739
:10047C003146E9E6704700BF30B587B000240194DF
:10048C0002940394049405940D4BDA6942F0010232
:10049C00DA61DB6903F001030093009B094D2246EE
:1004AC002021284600F0E0FD202301930123029334
:1004BC000394049401A9284600F0E2FC07B030BD77
:1004CC00003802400000024072B6FEE700B593B05F
:1004DC003422002105A800F081FE00230093019333
:1004EC0002930393049313490A6822F4C05242F412
:1004FC0000620A601022059201220B920C934FF4B9
:10050C0020420D920E9305A800F0FCF868B90F2359
:10051C00009300210191029103910491684600F02F
:10052C00C1FB20B913B05DF804FBFFF7CDFFFFF75B
:10053C00CBFF00BF0070004008B500F065F8FFF776
:10054C00C5FFFFF799FF2021034800F093FD5020D1
:10055C0000F07CF8F7E700BF00000240FEE7FEE782
:10056C00FEE7FEE7FEE770477047704708B500F0FE
:10057C005BF808BD84B00F4B5A6A42F000425A62D5
:10058C005A6A02F000420192019A1A6A42F0010280
:10059C001A621A6A02F001020292029A5A6A42F034
:1005AC0080525A625B6A03F080530393039B04B03E
:1005BC00704700BF00380240104B1B680BB901207C
:1005CC00704710B504464FF47A70B0FBF3F30C4A45
:1005DC001068B0FBF3F000F0A1FD68B90F2C01D945
:1005EC0001200AE0002221464FF0FF3000F05EFDB2
:1005FC00044B1C60002000E0012010BD0000002016
:10060C00080000200400002010B5032000F03CFD81
:10061C000F20FFF7D1FF10B10124204610BD044676
:10062C00FFF7A8FFF9E70000034A136803490968BC
:10063C000B441360704700BF28000020000000200E
:10064C00014B1868704700BF2800002038B50446DD
:10065C00FFF7F6FF0546B4F1FF3F02D0044B1B68D1
:10066C001C44FFF7EDFF401BA042FAD338BD00BF7E
:10067C000000002010B483B01F4B9B6813F0F003F4
:10068C0028D11D4A526A12F0805F10D01B4A1268A2
:10069C0002F4C052B2F5C05F1DD1B0F5404F1AD173
:1006AC00174A136843F004031360012313E0124943
:1006BC004A6A42F080524A624A6A02F080520192BF
:1006CC00019A0E4A126802F4C0524C6A24F080540B
:1006DC004C62DFE700230A490A6822F001021A4340
:1006EC000A600A6802F001029A4203D1002003B0AA
:1006FC0010BC70470120FAE700380240007000403F
:10070C00003C0240002800F05E82F0B583B0044645
:10071C00A24B9D6805F00C059E6806F480360368B4
:10072C0013F0010F1DD0082D12D00C2D0ED06368C4
:10073C00012B35D0002B49D1984B1A6822F480320A
:10074C001A601A6822F480221A602EE0002EEED075
:10075C00924B1B6813F4003F03D06368002B00F02E
:10076C003482236813F0020F68D0042D55D00C2D61
:10077C0051D0E368002B00F0C780894B01221A602E
:10078C00FFF75EFF0646854B1B6813F0020F40F027
:10079C00B280FFF755FF801B0228F4D903201DE21D
:1007AC007E4A136843F480331360636823B3FFF706
:1007BC0047FF0746794B1B6813F4003FD1D1FFF775
:1007CC003FFFC01B6428F5D9032007E2052B09D095
:1007DC00724B1A6822F480321A601A6822F4802252
:1007EC001A60E2E76D4B1A6842F480221A601A68AC
:1007FC0042F480321A60D8E7FFF722FF0746674BB6
:10080C001B6813F4003FACD0FFF71AFFC01B642821
:10081C00F5D90320E2E1002EABD1604B1B6813F03D
:10082C00020F03D0E368012B40F0D1815B4A53687F
:10083C0023F4F853216943EA01235360236813F02E
:10084C00100F3BD0002D40F08580544B1B6813F4E7
:10085C00007F03D0A369002B00F0BB81206A4F4BB3
:10086C005B6803F46043984260D9FFF703FF0028EC
:10087C0040F0B181494A536823F46043216A0B4329
:10088C005360536823F07F43E16943EA016353608B
:10089C00236A5B0B5A1C4FF4004393403F4A926807
:1008AC00C2F303123F498A5CD3403F4A13603F4B6B
:1008BC001868FFF781FE002840F09081236813F040
:1008CC00080F00F09B806369002B00F08480344B90
:1008DC000122C3F88026FFF7B3FE06462F4B5B6B55
:1008EC0013F0020F40F08A80FFF7AAFE801B02284B
:1008FC00F4D9032072E1294A536823F4F85321698F
:10090C0043EA0123536099E7254B00221A60FFF755
:10091C0097FE0646214B1B6813F0020F8ED0FFF793
:10092C008FFE801B0228F5D9032057E11B4A536820
:10093C0023F4604318435060536823F07F43E1690C
:10094C0043EA01635360206AFFF794FE00289FD0AE
:10095C00012043E1A3695BB3114B01221A62FFF73B
:10096C006FFE06460D4B1B6813F4007F06D1FFF794
:10097C0067FE801B0228F5D903202FE1074A536834
:10098C0023F46043216A0B435360536823F07F4385
:10099C00E16943EA0163536090E700BF003802400D
:1009AC00000047421012000808000020040000203C
:1009BC008F4B00221A62FFF743FE06468D4B1B68D5
:1009CC0013F4007F3FF47AAFFFF73AFE801B022846
:1009DC00F4D9032002E1864B0022C3F88026FFF7EE
:1009EC002FFE0646834B5B6B13F0020F06D0FFF70E
:1009FC0027FE801B0228F5D90320EFE0236813F0B3
:100A0C00040F79D07B4B5B6A13F0805F0BD1794B71
:100A1C005A6A42F080525A625B6A03F08053019327
:100A2C00019B012600E00026734B1B6813F4807FAA
:100A3C000ED0A368012B1FD0002B35D16D4B5A6BF8
:100A4C0022F480725A635A6B22F480625A6318E063
:100A5C00694A136843F480731360FFF7F1FD07468E
:100A6C00654B1B6813F4807FE3D1FFF7E9FDC01BD6
:100A7C006428F5D90320B1E05E4A536B43F48073CC
:100A8C005363A36833B3FFF7DBFD0746594B5B6B2E
:100A9C0013F4007F2FD1FFF7D3FDC01B41F2883335
:100AAC009842F3D9032099E0052B09D0514B5A6B8E
:100ABC0022F480725A635A6B22F480625A63E0E724
:100ACC004C4B5A6B42F480625A635A6B42F48072FC
:100ADC005A63D6E7FFF7B4FD0746464B5B6B13F43E
:100AEC00007F08D0FFF7ACFDC01B41F28833984261
:100AFC00F3D9032072E0C6B9636A002B6DD00C2DBC
:100B0C004CD0022B17D03A4B00221A66FFF798FDF7
:100B1C000446384B1B6813F0007F3DD0FFF790FD67
:100B2C00001B0228F5D9032058E0324A536A23F0FF
:100B3C0080535362E0E72E4B00221A66FFF780FDCC
:100B4C0005462C4B1B6813F0007F06D0FFF778FD91
:100B5C00401B0228F5D9032040E026498B6823F47A
:100B6C007D03A26AE06A0243206B024313438B604D
:100B7C001F4B01221A66FFF763FD04461D4B1B68D1
:100B8C0013F0007F06D1FFF75BFD001B0228F5D99F
:100B9C00032023E0002021E000201FE0012B1FD0C8
:100BAC00144B9B6803F48031A26A91421AD103F46E
:100BBC007012E16A8A4217D103F44003226B93420C
:100BCC0014D100200AE001207047012006E001202A
:100BDC0004E0012002E0012000E0002003B0F0BDA1
:100BEC000120FBE70120F9E70120F7E70120F5E7F9
:100BFC0000004742003802400070004008B5254B09
:100C0C009A6802F00C03082B3FD00C2B0AD0042B53
:100C1C003DD0204B5868C0F34230431C4FF4004089
:100C2C00984035E0C2F383431B4911F803C0C2F36B
:100C3C0081520132174B9B6813F4803F06D0174842
:100C4C000023ACFB0001FFF793FA21E04FEA4C11B3
:100C5C00B1EB0C006EEB0E0E4FEA8E1343EA906371
:100C6C008101091A63EB0E03DB0043EA5173C900DF
:100C7C0011EB0C0C43F10003990200234FEA8C207A
:100C8C0041EA9C51FFF774FA02E0044800E0044882
:100C9C0008BD00BF003802402012000800366E016B
:100CAC000024F400002800F0D98070B50C460546ED
:100CBC006E4B1B6803F001038B420DD2012928D027
:100CCC006A4A136823F0010323431360136803F08B
:100CDC000103A34240F0C4802B6813F0020F06D02E
:100CEC00634A936823F0F003A9680B4393602B6865
:100CFC0013F0010F72D06B68022B10D0032B32D083
:100D0C00012B37D05A4A126812F4007F0DD1012002
:100D1C009DE0564A136843F004031360D0E7544A2D
:100D2C00126812F4003F00F09D8051498A6822F04D
:100D3C00030213438B60FFF783FC06466B68022BA0
:100D4C001FD0032B2CD0012B39D0494B9B6813F0AF
:100D5C000C0F43D0FFF774FC801B41F28833984290
:100D6C00F3D9032073E0424A126812F0007FDCD101
:100D7C0001206CE03E4A126812F0020FD5D101201E
:100D8C0065E03B4B9B6803F00C03082B26D0FFF768
:100D9C0057FC831B41F288329342F2D9032056E070
:100DAC00334B9B6803F00C030C2B17D0FFF748FC5C
:100DBC00801B41F288339842F2D9032047E02C4B38
:100DCC009B6803F00C03042B08D0FFF739FC801B45
:100DDC0041F288339842F2D9032038E0234B1B6848
:100DEC0003F00103A3420CD9012C31D01F4A136824
:100DFC0023F0010323431360136803F00103A342A0
:100E0C0032D12B6813F0040F06D0194A936823F4DF
:100E1C00E063E9680B4393602B6813F0080F07D06D
:100E2C00134A936823F46053296943EAC10393601E
:100E3C00FFF7E4FE0E4B9B68C3F303130D4AD35C20
:100E4C00D8400D4B18600D4B1868FFF7B5FB70BD03
:100E5C00064A136843F004031360C7E70120704788
:100E6C000120F4E70120F2E70120F0E7003C02400A
:100E7C000038024010120008080000200400002076
:100E8C0070B582B0002365E085685E000324B44031
:100E9C0025EA0405CC68B4402C438460446824EAF9
:100EAC000C0C4C68C4F300149C4044EA0C044460E1
:100EBC0061E0DD08083550F8256003F007044FEABF
:100ECC00840C0F2404FA0CF426EA040E0C6904FAC0
:100EDC000CF444EA0E0440F8254063E0062400E0DC
:100EEC00002404FA0EF42C430CF1020C5A4D45F874
:100EFC002C405A4CA568D44325EA0206D1F804C00C
:100F0C001CF4801F01D042EA0506544DAE60ED681A
:100F1C0004EA0506D1F804C01CF4001F01D042EA13
:100F2C0005064E4DEE606D6804EA0506D1F804C066
:100F3C001CF4003F01D042EA0506484D6E602D6856
:100F4C002C404E6816F4803F01D042EA0504434A17
:100F5C00146001330A6832FA03F47BD04FF0010CB1
:100F6C000CFA03FC1CEA0202F3D04C6804F00304F4
:100F7C00013C012C88D94C6804F00304032C0CD0E0
:100F8C00C4685D004FF0030C0CFA05FC24EA0C0C51
:100F9C008C68AC4044EA0C04C4604C6804F0030454
:100FAC00022C86D004684FEA430E4FF0030C0CFA67
:100FBC000EFC24EA0C0C4C6804F0030404FA0EF446
:100FCC0044EA0C0404604C6814F4403FC1D0244C37
:100FDC00256A45F001052562246A04F00104019498
:100FEC00019C4FEA930C0CF102051B4C54F8255054
:100FFC0003F003044FEA840E0F2404FA0EF425EADE
:10100C000405184CA0423FF46BAF04F58064A04279
:10101C0016D004F58064A04214D004F58064A0427C
:10102C0012D004F58064A04210D004F58064A04274
:10103C000ED004F58064A0423FF450AF072450E773
:10104C0001244EE702244CE703244AE7042448E732
:10105C00052446E702B070BD0000014000040140C9
:10106C0000380240000002400AB181617047090457
:10107C0081617047436901EA030221EA030141EAF5
:10108C000241816170470000074AD36823F4E06392
:10109C001B041B0C000200F4E060034343F0BF632D
:1010AC0043F40033D360704700ED00E000B5194BFA
:1010BC00DB68C3F30223C3F1070CBCF1040F28BF98
:1010CC004FF0040C03F1040EBEF1060F18D9033BCC
:1010DC004FF0FF3E0EFA0CFC21EA0C0199400EFA7F
:1010EC0003F322EA0303194300280BDB0901C9B2FD
:1010FC0000F1604000F5614080F800135DF804FBDE
:10110C000023E5E700F00F000901C9B2024B1954A6
:10111C00F4E700BF00ED00E014ED00E00138B0F1A1
:10112C00807F0BD24FF0E0235861054AF02182F802
:10113C0023100020986107221A6170470120704724
:10114C0000ED00E070470000FFF7FCFF0B480C4976
:10115C000C4A002302E0D458C4500433C4188C4207
:10116C00F9D3094A094C002301E013600432A2426E
:10117C00FBD300F00FF8FFF7DFF9704700000020F9
:10118C000C0000203C1200080C0000202C00002059
:10119C00FEE7000070B500260C4D0D4C641BA4102E
:1011AC00A64209D100F022F800260A4D0A4C641B15
:1011BC00A410A64205D170BD55F8043B98470136E2
:1011CC00EEE755F8043B98470136F2E73412000875
:1011DC003412000834120008381200080346024486
:1011EC00934200D1704703F8011BF9E7F8B500BF33
:1011FC00F8BC08BC9E467047F8B500BFF8BC08BCEC
:04120C009E46704743
:1012100000000000000000000102030406070809A6
:0C122000030406080C1018203000000029
:08122C0080EFFF7F01000000CC
:04123400610100084C
:041238003D0100086C
:0C123C00010000001000000068FF1F000F
:040000050800115589
:00000001FF
